{
  "_format": "hh-sol-artifact-1",
  "contractName": "WavePortal",
  "sourceName": "contracts/WavePortal.sol",
  "abi": [
    {
      "inputs": [],
      "stateMutability": "payable",
      "type": "constructor"
    },
    {
      "anonymous": false,
      "inputs": [
        {
          "indexed": true,
          "internalType": "address",
          "name": "from",
          "type": "address"
        },
        {
          "indexed": false,
          "internalType": "uint256",
          "name": "timestamp",
          "type": "uint256"
        },
        {
          "indexed": false,
          "internalType": "string",
          "name": "message",
          "type": "string"
        }
      ],
      "name": "NewWave",
      "type": "event"
    },
    {
      "inputs": [],
      "name": "getAllWaves",
      "outputs": [
        {
          "components": [
            {
              "internalType": "address",
              "name": "waver",
              "type": "address"
            },
            {
              "internalType": "string",
              "name": "message",
              "type": "string"
            },
            {
              "internalType": "uint256",
              "name": "timestamp",
              "type": "uint256"
            }
          ],
          "internalType": "struct WavePortal.Wave[]",
          "name": "",
          "type": "tuple[]"
        }
      ],
      "stateMutability": "view",
      "type": "function"
    },
    {
      "inputs": [],
      "name": "getTotalWaves",
      "outputs": [
        {
          "internalType": "uint256",
          "name": "",
          "type": "uint256"
        }
      ],
      "stateMutability": "view",
      "type": "function"
    },
    {
      "inputs": [
        {
          "internalType": "address",
          "name": "",
          "type": "address"
        }
      ],
      "name": "lastWavedAt",
      "outputs": [
        {
          "internalType": "uint256",
          "name": "",
          "type": "uint256"
        }
      ],
      "stateMutability": "view",
      "type": "function"
    },
    {
      "inputs": [
        {
          "internalType": "string",
          "name": "_message",
          "type": "string"
        }
      ],
      "name": "wave",
      "outputs": [],
      "stateMutability": "nonpayable",
      "type": "function"
    }
  ],
  "bytecode": "0x60806040526200004f6040518060400160405280601981526020017f57652068617665206265656e20636f6e737472756374656421000000000000008152506200007760201b620006391760201c565b606444426200005f9190620001c4565b6200006b919062000261565b60018190555062000308565b62000117816040516024016200008e919062000184565b6040516020818303038152906040527f41304fac000000000000000000000000000000000000000000000000000000007bffffffffffffffffffffffffffffffffffffffffffffffffffffffff19166020820180517bffffffffffffffffffffffffffffffffffffffffffffffffffffffff83818316178352505050506200011a60201b60201c565b50565b60008151905060006a636f6e736f6c652e6c6f679050602083016000808483855afa5050505050565b60006200015082620001a8565b6200015c8185620001b3565b93506200016e8185602086016200022b565b6200017981620002f7565b840191505092915050565b60006020820190508181036000830152620001a0818462000143565b905092915050565b600081519050919050565b600082825260208201905092915050565b6000620001d18262000221565b9150620001de8362000221565b9250827fffffffffffffffffffffffffffffffffffffffffffffffffffffffffffffffff0382111562000216576200021562000299565b5b828201905092915050565b6000819050919050565b60005b838110156200024b5780820151818401526020810190506200022e565b838111156200025b576000848401525b50505050565b60006200026e8262000221565b91506200027b8362000221565b9250826200028e576200028d620002c8565b5b828206905092915050565b7f4e487b7100000000000000000000000000000000000000000000000000000000600052601160045260246000fd5b7f4e487b7100000000000000000000000000000000000000000000000000000000600052601260045260246000fd5b6000601f19601f8301169050919050565b6110f180620003186000396000f3fe608060405234801561001057600080fd5b506004361061004c5760003560e01c8063449d46c0146100515780639a2cdc081461006d578063a42a46631461008b578063bd43a908146100bb575b600080fd5b61006b6004803603810190610066919061097c565b6100d9565b005b6100756104c7565b6040516100829190610d83565b60405180910390f35b6100a560048036038101906100a09190610953565b6104d0565b6040516100b29190610d83565b60405180910390f35b6100c36104e8565b6040516100d09190610c7f565b60405180910390f35b42610384600360003373ffffffffffffffffffffffffffffffffffffffff1673ffffffffffffffffffffffffffffffffffffffff168152602001908152602001600020546101279190610ea0565b10610167576040517f08c379a000000000000000000000000000000000000000000000000000000000815260040161015e90610d63565b60405180910390fd5b42600360003373ffffffffffffffffffffffffffffffffffffffff1673ffffffffffffffffffffffffffffffffffffffff1681526020019081526020016000208190555060016000808282546101bd9190610ea0565b925050819055506102036040518060400160405280600d81526020017f2573206861732077617665642100000000000000000000000000000000000000815250336106d2565b600260405180606001604052803373ffffffffffffffffffffffffffffffffffffffff16815260200183815260200142815250908060018154018082558091505060019003906000526020600020906003020160009091909190915060008201518160000160006101000a81548173ffffffffffffffffffffffffffffffffffffffff021916908373ffffffffffffffffffffffffffffffffffffffff16021790555060208201518160010190805190602001906102c2929190610833565b50604082015181600201555050606444426102dd9190610ea0565b6102e79190610fa6565b60018190555061032e6040518060400160405280601681526020017f52616e646f6d20232067656e6572617465643a2025640000000000000000000081525060015461076e565b603260015411610474576103776040518060400160405280600781526020017f257320776f6e2100000000000000000000000000000000000000000000000000815250336106d2565b6000655af3107a40009050478111156103c5576040517f08c379a00000000000000000000000000000000000000000000000000000000081526004016103bc90610d23565b60405180910390fd5b60003373ffffffffffffffffffffffffffffffffffffffff16826040516103eb90610c6a565b60006040518083038185875af1925050503d8060008114610428576040519150601f19603f3d011682016040523d82523d6000602084013e61042d565b606091505b5050905080610471576040517f08c379a000000000000000000000000000000000000000000000000000000000815260040161046890610d43565b60405180910390fd5b50505b3373ffffffffffffffffffffffffffffffffffffffff167f5f7e16dc676677766a70e9c5628aa6c54ddb8b6e5188e2ae1e1f17f1ffbea71642836040516104bc929190610d9e565b60405180910390a250565b60008054905090565b60036020528060005260406000206000915090505481565b60606002805480602002602001604051908101604052809291908181526020016000905b8282101561063057838290600052602060002090600302016040518060600160405290816000820160009054906101000a900473ffffffffffffffffffffffffffffffffffffffff1673ffffffffffffffffffffffffffffffffffffffff1673ffffffffffffffffffffffffffffffffffffffff16815260200160018201805461059590610f74565b80601f01602080910402602001604051908101604052809291908181526020018280546105c190610f74565b801561060e5780601f106105e35761010080835404028352916020019161060e565b820191906000526020600020905b8154815290600101906020018083116105f157829003601f168201915b505050505081526020016002820154815250508152602001906001019061050c565b50505050905090565b6106cf8160405160240161064d9190610ca1565b6040516020818303038152906040527f41304fac000000000000000000000000000000000000000000000000000000007bffffffffffffffffffffffffffffffffffffffffffffffffffffffff19166020820180517bffffffffffffffffffffffffffffffffffffffffffffffffffffffff838183161783525050505061080a565b50565b61076a82826040516024016106e8929190610cc3565b6040516020818303038152906040527f319af333000000000000000000000000000000000000000000000000000000007bffffffffffffffffffffffffffffffffffffffffffffffffffffffff19166020820180517bffffffffffffffffffffffffffffffffffffffffffffffffffffffff838183161783525050505061080a565b5050565b6108068282604051602401610784929190610cf3565b6040516020818303038152906040527f9710a9d0000000000000000000000000000000000000000000000000000000007bffffffffffffffffffffffffffffffffffffffffffffffffffffffff19166020820180517bffffffffffffffffffffffffffffffffffffffffffffffffffffffff838183161783525050505061080a565b5050565b60008151905060006a636f6e736f6c652e6c6f679050602083016000808483855afa5050505050565b82805461083f90610f74565b90600052602060002090601f01602090048101928261086157600085556108a8565b82601f1061087a57805160ff19168380011785556108a8565b828001600101855582156108a8579182015b828111156108a757825182559160200191906001019061088c565b5b5090506108b591906108b9565b5090565b5b808211156108d25760008160009055506001016108ba565b5090565b60006108e96108e484610dff565b610dce565b90508281526020810184848401111561090157600080fd5b61090c848285610f32565b509392505050565b600081359050610923816110a4565b92915050565b600082601f83011261093a57600080fd5b813561094a8482602086016108d6565b91505092915050565b60006020828403121561096557600080fd5b600061097384828501610914565b91505092915050565b60006020828403121561098e57600080fd5b600082013567ffffffffffffffff8111156109a857600080fd5b6109b484828501610929565b91505092915050565b60006109c98383610bfc565b905092915050565b6109da81610ef6565b82525050565b6109e981610ef6565b82525050565b60006109fa82610e3f565b610a048185610e62565b935083602082028501610a1685610e2f565b8060005b85811015610a525784840389528151610a3385826109bd565b9450610a3e83610e55565b925060208a01995050600181019050610a1a565b50829750879550505050505092915050565b6000610a6f82610e4a565b610a798185610e7e565b9350610a89818560208601610f41565b610a9281611093565b840191505092915050565b6000610aa882610e4a565b610ab28185610e8f565b9350610ac2818560208601610f41565b610acb81611093565b840191505092915050565b6000610ae3603483610e8f565b91507f547279696e6720746f207769746864726177206d6f7265206d6f6e657920746860008301527f616e2074686520636f6e7472616374206861732e0000000000000000000000006020830152604082019050919050565b6000610b49602783610e8f565b91507f4661696c656420746f207769746864726177206d6f6e65792066726f6d20636f60008301527f6e74726163742e000000000000000000000000000000000000000000000000006020830152604082019050919050565b6000610baf600083610e73565b9150600082019050919050565b6000610bc9600883610e8f565b91507f576169742031356d0000000000000000000000000000000000000000000000006000830152602082019050919050565b6000606083016000830151610c1460008601826109d1565b5060208301518482036020860152610c2c8282610a64565b9150506040830151610c416040860182610c4c565b508091505092915050565b610c5581610f28565b82525050565b610c6481610f28565b82525050565b6000610c7582610ba2565b9150819050919050565b60006020820190508181036000830152610c9981846109ef565b905092915050565b60006020820190508181036000830152610cbb8184610a9d565b905092915050565b60006040820190508181036000830152610cdd8185610a9d565b9050610cec60208301846109e0565b9392505050565b60006040820190508181036000830152610d0d8185610a9d565b9050610d1c6020830184610c5b565b9392505050565b60006020820190508181036000830152610d3c81610ad6565b9050919050565b60006020820190508181036000830152610d5c81610b3c565b9050919050565b60006020820190508181036000830152610d7c81610bbc565b9050919050565b6000602082019050610d986000830184610c5b565b92915050565b6000604082019050610db36000830185610c5b565b8181036020830152610dc58184610a9d565b90509392505050565b6000604051905081810181811067ffffffffffffffff82111715610df557610df4611064565b5b8060405250919050565b600067ffffffffffffffff821115610e1a57610e19611064565b5b601f19601f8301169050602081019050919050565b6000819050602082019050919050565b600081519050919050565b600081519050919050565b6000602082019050919050565b600082825260208201905092915050565b600081905092915050565b600082825260208201905092915050565b600082825260208201905092915050565b6000610eab82610f28565b9150610eb683610f28565b9250827fffffffffffffffffffffffffffffffffffffffffffffffffffffffffffffffff03821115610eeb57610eea610fd7565b5b828201905092915050565b6000610f0182610f08565b9050919050565b600073ffffffffffffffffffffffffffffffffffffffff82169050919050565b6000819050919050565b82818337600083830152505050565b60005b83811015610f5f578082015181840152602081019050610f44565b83811115610f6e576000848401525b50505050565b60006002820490506001821680610f8c57607f821691505b60208210811415610fa057610f9f611035565b5b50919050565b6000610fb182610f28565b9150610fbc83610f28565b925082610fcc57610fcb611006565b5b828206905092915050565b7f4e487b7100000000000000000000000000000000000000000000000000000000600052601160045260246000fd5b7f4e487b7100000000000000000000000000000000000000000000000000000000600052601260045260246000fd5b7f4e487b7100000000000000000000000000000000000000000000000000000000600052602260045260246000fd5b7f4e487b7100000000000000000000000000000000000000000000000000000000600052604160045260246000fd5b6000601f19601f8301169050919050565b6110ad81610ef6565b81146110b857600080fd5b5056fea26469706673582212201e20f5158b430cddc5fb2b236e44dbd71c55956d511ae3b1434a55b9c40ee7b164736f6c63430008000033",
  "linkReferences": {},
  "deployedLinkReferences": {}
}