{
  "_format": "hh-sol-artifact-1",
  "contractName": "WavePortal",
  "sourceName": "contracts/WavePortal.sol",
  "abi": [
    {
      "inputs": [],
      "stateMutability": "payable",
      "type": "constructor"
    },
    {
      "anonymous": false,
      "inputs": [
        {
          "indexed": true,
          "internalType": "address",
          "name": "from",
          "type": "address"
        },
        {
          "indexed": false,
          "internalType": "uint256",
          "name": "timestamp",
          "type": "uint256"
        },
        {
          "indexed": false,
          "internalType": "string",
          "name": "message",
          "type": "string"
        }
      ],
      "name": "NewWave",
      "type": "event"
    },
    {
      "inputs": [
        {
          "internalType": "string",
          "name": "_message",
          "type": "string"
        }
      ],
      "name": "wave",
      "outputs": [],
      "stateMutability": "nonpayable",
      "type": "function"
    }
  ],
  "bytecode": "0x608060405261004c6040518060400160405280601981526020017f57652068617665206265656e20636f6e7374727563746564210000000000000081525061005160201b6102bf1760201c565b6101d4565b6100ed816040516024016100659190610152565b6040516020818303038152906040527f41304fac000000000000000000000000000000000000000000000000000000007bffffffffffffffffffffffffffffffffffffffffffffffffffffffff19166020820180517bffffffffffffffffffffffffffffffffffffffffffffffffffffffff83818316178352505050506100f060201b60201c565b50565b60008151905060006a636f6e736f6c652e6c6f679050602083016000808483855afa5050505050565b600061012482610174565b61012e818561017f565b935061013e818560208601610190565b610147816101c3565b840191505092915050565b6000602082019050818103600083015261016c8184610119565b905092915050565b600081519050919050565b600082825260208201905092915050565b60005b838110156101ae578082015181840152602081019050610193565b838111156101bd576000848401525b50505050565b6000601f19601f8301169050919050565b6109df806101e36000396000f3fe608060405234801561001057600080fd5b506004361061002b5760003560e01c8063449d46c014610030575b600080fd5b61004a60048036038101906100459190610528565b61004c565b005b600160008082825461005e9190610805565b925050819055506100a46040518060400160405280600d81526020017f257320686173207761766564210000000000000000000000000000000000000081525033610358565b600160405180606001604052803373ffffffffffffffffffffffffffffffffffffffff16815260200183815260200142815250908060018154018082558091505060019003906000526020600020906003020160009091909190915060008201518160000160006101000a81548173ffffffffffffffffffffffffffffffffffffffff021916908373ffffffffffffffffffffffffffffffffffffffff160217905550602082015181600101908051906020019061016392919061041d565b506040820151816002015550503373ffffffffffffffffffffffffffffffffffffffff167f5f7e16dc676677766a70e9c5628aa6c54ddb8b6e5188e2ae1e1f17f1ffbea71642836040516101b892919061074d565b60405180910390a26000655af3107a400090504781111561020e576040517f08c379a00000000000000000000000000000000000000000000000000000000081526004016102059061070d565b60405180910390fd5b60003373ffffffffffffffffffffffffffffffffffffffff1682604051610234906106a6565b60006040518083038185875af1925050503d8060008114610271576040519150601f19603f3d011682016040523d82523d6000602084013e610276565b606091505b50509050806102ba576040517f08c379a00000000000000000000000000000000000000000000000000000000081526004016102b19061072d565b60405180910390fd5b505050565b610355816040516024016102d391906106bb565b6040516020818303038152906040527f41304fac000000000000000000000000000000000000000000000000000000007bffffffffffffffffffffffffffffffffffffffffffffffffffffffff19166020820180517bffffffffffffffffffffffffffffffffffffffffffffffffffffffff83818316178352505050506103f4565b50565b6103f0828260405160240161036e9291906106dd565b6040516020818303038152906040527f319af333000000000000000000000000000000000000000000000000000000007bffffffffffffffffffffffffffffffffffffffffffffffffffffffff19166020820180517bffffffffffffffffffffffffffffffffffffffffffffffffffffffff83818316178352505050506103f4565b5050565b60008151905060006a636f6e736f6c652e6c6f679050602083016000808483855afa5050505050565b828054610429906108d9565b90600052602060002090601f01602090048101928261044b5760008555610492565b82601f1061046457805160ff1916838001178555610492565b82800160010185558215610492579182015b82811115610491578251825591602001919060010190610476565b5b50905061049f91906104a3565b5090565b5b808211156104bc5760008160009055506001016104a4565b5090565b60006104d36104ce846107ae565b61077d565b9050828152602081018484840111156104eb57600080fd5b6104f6848285610897565b509392505050565b600082601f83011261050f57600080fd5b813561051f8482602086016104c0565b91505092915050565b60006020828403121561053a57600080fd5b600082013567ffffffffffffffff81111561055457600080fd5b610560848285016104fe565b91505092915050565b6105728161085b565b82525050565b6000610583826107de565b61058d81856107f4565b935061059d8185602086016108a6565b6105a681610998565b840191505092915050565b60006105be6034836107f4565b91507f547279696e6720746f207769746864726177206d6f7265206d6f6e657920746860008301527f616e2074686520636f6e7472616374206861732e0000000000000000000000006020830152604082019050919050565b60006106246027836107f4565b91507f4661696c656420746f207769746864726177206d6f6e65792066726f6d20636f60008301527f6e74726163742e000000000000000000000000000000000000000000000000006020830152604082019050919050565b600061068a6000836107e9565b9150600082019050919050565b6106a08161088d565b82525050565b60006106b18261067d565b9150819050919050565b600060208201905081810360008301526106d58184610578565b905092915050565b600060408201905081810360008301526106f78185610578565b90506107066020830184610569565b9392505050565b60006020820190508181036000830152610726816105b1565b9050919050565b6000602082019050818103600083015261074681610617565b9050919050565b60006040820190506107626000830185610697565b81810360208301526107748184610578565b90509392505050565b6000604051905081810181811067ffffffffffffffff821117156107a4576107a3610969565b5b8060405250919050565b600067ffffffffffffffff8211156107c9576107c8610969565b5b601f19601f8301169050602081019050919050565b600081519050919050565b600081905092915050565b600082825260208201905092915050565b60006108108261088d565b915061081b8361088d565b9250827fffffffffffffffffffffffffffffffffffffffffffffffffffffffffffffffff038211156108505761084f61090b565b5b828201905092915050565b60006108668261086d565b9050919050565b600073ffffffffffffffffffffffffffffffffffffffff82169050919050565b6000819050919050565b82818337600083830152505050565b60005b838110156108c45780820151818401526020810190506108a9565b838111156108d3576000848401525b50505050565b600060028204905060018216806108f157607f821691505b602082108114156109055761090461093a565b5b50919050565b7f4e487b7100000000000000000000000000000000000000000000000000000000600052601160045260246000fd5b7f4e487b7100000000000000000000000000000000000000000000000000000000600052602260045260246000fd5b7f4e487b7100000000000000000000000000000000000000000000000000000000600052604160045260246000fd5b6000601f19601f830116905091905056fea264697066735822122014ccec4d58ade1af7cd57026f5ba2d9b7a713bc6dda6a7e4cae7f28c6ecad6cf64736f6c63430008000033",
  "linkReferences": {},
  "deployedLinkReferences": {}
}